{
  "contractName": "Ownable",
  "abi": [
    {
      "constant": true,
      "inputs": [],
      "name": "owner",
      "outputs": [
        {
          "name": "",
          "type": "address"
        }
      ],
      "payable": false,
      "stateMutability": "view",
      "type": "function"
    },
    {
      "inputs": [],
      "payable": false,
      "stateMutability": "nonpayable",
      "type": "constructor"
    }
  ],
  "bytecode": "0x6060604052341561000f57600080fd5b336000806101000a81548173ffffffffffffffffffffffffffffffffffffffff021916908373ffffffffffffffffffffffffffffffffffffffff16021790555060e78061005d6000396000f300606060405260043610603f576000357c0100000000000000000000000000000000000000000000000000000000900463ffffffff1680638da5cb5b146044575b600080fd5b3415604e57600080fd5b60546096565b604051808273ffffffffffffffffffffffffffffffffffffffff1673ffffffffffffffffffffffffffffffffffffffff16815260200191505060405180910390f35b6000809054906101000a900473ffffffffffffffffffffffffffffffffffffffff16815600a165627a7a7230582055ff14e2388215d34e108a4534cb0a93998d1f2fc2470b28812d0f2aa7f070a30029",
  "source": "pragma solidity ^0.4.18;\n\n\nlibrary SafeMath {\n    function mul(uint256 a, uint256 b) internal pure returns (uint256) {\n        if (a == 0) {\n            return 0;\n        }\n        uint256 c = a * b;\n        assert(c / a == b);\n        return c;\n    }\n    function div(uint256 a, uint256 b) internal pure returns (uint256) {\n        uint256 c = a / b;\n        return c;\n    }\n    function sub(uint256 a, uint256 b) internal pure returns (uint256) {\n        assert(b <= a);\n        return a - b;\n    }\n    function add(uint256 a, uint256 b) internal pure returns (uint256) {\n        uint256 c = a + b;\n        assert(c >= a);\n        return c;\n    }\n}\n\ncontract Ownable {\n    address public owner;\n    function Ownable() public {\n        owner = msg.sender;\n    }\n    modifier onlyOwner() {\n        require(msg.sender == owner);\n        _;\n    }\n}\n\ncontract TokenERC20 is Ownable {\n    using SafeMath for uint;\n    string public name;\n    string public symbol;\n    uint8 public decimals = 18;\n    address public owner;\n    uint256 public initialSupply;\n    uint256 public totalSupply;\n    bool public isEnabled;\n\n    mapping (address => bool) public saleAgents;\n    mapping (address => mapping (address => uint256)) internal allowed;\n    mapping (address => uint256) public balanceOf;\n\n    event Transfer(address indexed from, address indexed to, uint256 value);\n    event Approval(address indexed owner, address indexed spender, uint256 value);\n    event Burn(address indexed from, uint256 value);\n\n    function TokenERC20(\n        uint256 _initialSupply,\n        string _tokenName,\n        string _tokenSymbol\n    ) public\n    {\n        uint256 localInitialSupply = _initialSupply.mul(10 ** uint256(decimals)); // Подсчитываем общее количество токенов\n        \n        initialSupply = localInitialSupply;\n        totalSupply = localInitialSupply; // Записываем общее количество выпускаемых токенов\n\n        balanceOf[this] = localInitialSupply.div(3).mul(2); // Записываем две трети токенов на адрес текущего контракта токена\n        balanceOf[msg.sender] = localInitialSupply.div(3); // Треть токенов переводим создателю контракта\n        name = _tokenName; // Записываем название токена\n        symbol = _tokenSymbol; // Записываем символ токена\n        owner = msg.sender; // Делаем создателя контракта владельцем\n    }\n\n    function _transfer(address _from, address _to, uint256 _value) internal {\n        require(_to != 0x0);\n        require(_value <= balanceOf[_from]);\n        require(balanceOf[_to].add(_value) > balanceOf[_to]);\n        require(isEnabled || saleAgents[msg.sender]);\n\n        uint256 previousBalances = balanceOf[_from].add(balanceOf[_to]);\n        balanceOf[_from] = balanceOf[_from].sub(_value);\n        balanceOf[_to] = balanceOf[_to].add(_value);\n        Transfer(_from, _to, _value);\n        assert(balanceOf[_from].add(balanceOf[_to]) == previousBalances);\n    }\n\n    function transfer(address _to, uint256 _value) public returns (bool) {\n        _transfer(msg.sender, _to, _value);\n        return true;\n    }\n\n    function transferFrom(address _from, address _to, uint256 _value) public returns (bool) {\n        require(_value <= allowed[_from][msg.sender]);\n\n        allowed[_from][msg.sender] = allowed[_from][msg.sender].sub(_value);\n         _transfer(_from, _to, _value);\n        return true;\n    }\n\n    function sendToSaleAgent (address _saleAgent, uint256 _value) public {\n        require(saleAgents[_saleAgent]);\n        require(_value <= balanceOf[this]);\n        balanceOf[this] = balanceOf[this].sub(_value);\n        balanceOf[_saleAgent] = balanceOf[_saleAgent].add(_value);\n    }\n    \n\n    function approve(address _spender, uint256 _value) public returns (bool) {\n        allowed[msg.sender][_spender] = _value;\n        Approval(msg.sender, _spender, _value);\n        return true;\n    }\n\n    function allowance(address _owner, address _spender) public view returns (uint256) {\n        return allowed[_owner][_spender];\n    }\n\n    function increaseApproval(address _spender, uint _addedValue) public returns (bool) {\n        allowed[msg.sender][_spender] = allowed[msg.sender][_spender].add(_addedValue);\n        Approval(msg.sender, _spender, allowed[msg.sender][_spender]);\n        return true;\n    }\n\n    function decreaseApproval(address _spender, uint _subtractedValue) public returns (bool) {\n        uint oldValue = allowed[msg.sender][_spender];\n        if (_subtractedValue > oldValue) {\n          allowed[msg.sender][_spender] = 0;\n        } else {\n          allowed[msg.sender][_spender] = oldValue.sub(_subtractedValue);\n        }\n        Approval(msg.sender, _spender, allowed[msg.sender][_spender]);\n        return true;\n    }\n\n\n    function burn(uint256 _value) public returns (bool) {\n        require(balanceOf[msg.sender] >= _value);   // Проверяем, достаточно ли средств у сжигателя\n\n        address burner = msg.sender;\n        balanceOf[burner] = balanceOf[burner].sub(_value);  // Списываем с баланса сжигателя\n        totalSupply = totalSupply.sub(_value);  // Обновляем общее количество токенов\n        Burn(burner, _value);\n        Transfer(burner, address(0x0), _value);\n        return true;\n    }\n\n    function addSaleAgent (address _saleAgent) public onlyOwner {\n        saleAgents[_saleAgent] = true;\n        allowed[this][_saleAgent] = totalSupply;\n    }\n\n    function disable () public onlyOwner {\n        require(isEnabled);\n        isEnabled = false;\n    }\n    function enable () public onlyOwner {\n        require(!isEnabled);\n        isEnabled = true;\n    }\n}\n\ncontract Token is TokenERC20 {\n    function Token() public TokenERC20(100000000, \"SomeCrowdsaleToken\", \"SCT\") {}\n\n}",
  "sourcePath": "/Users/vlasnikita/Documents/elephant/smartcontract-gold/contracts/Token.sol",
  "compiler": {
    "name": "solc",
    "version": "0.4.19+commit.c4cbbb05.Emscripten.clang"
  },
  "schemaVersion": "1.0.1",
  "updatedAt": "2018-03-15T12:34:37.621Z"
}